:100000000C9458000C9480000C9480000C94800098
:100010000C9480000C9480000C9480000C94800060
:100020000C9480000C9480000C9480000C94800050
:100030000C9480000C9480000C9480000C94800040
:100040000C94D9020C9480000C94A7020C948102A9
:100050000C9480000C9480000C9480000C94800020
:100060000C9480000C948000000000002500280003
:100070002B00040404040404040402020202020229
:10008000030303030303010204081020408001025C
:1000900004081020010204081020000000080002DB
:1000A0000100000304070000000000000000370505
:1000B00011241FBECFEFD8E0DEBFCDBF11E0A0E01E
:1000C000B1E0E8EDFAE002C005900D92A231B1076F
:1000D000D9F724E0A2E1B1E001C01D92A531B20739
:1000E000E1F710E0C8E5D0E004C02197FE010E94CE
:1000F0006405C735D107C9F70E9423030C946A052C
:100100000C940000E7EAF0E02491E3E9F0E0949138
:10011000EFE7F0E0E491EE23C9F0222339F0233039
:1001200001F1A8F4213019F1223029F1F0E0EE0FAD
:10013000FF1FE859FF4FA591B4912FB7F894EC91A8
:10014000811126C090959E239C932FBF0895273040
:10015000A9F02830C9F0243049F7209180002F7D84
:1001600003C0209180002F7720938000DFCF24B53B
:100170002F7724BDDBCF24B52F7DFBCF2091B0009E
:100180002F772093B000D2CF2091B0002F7DF9CFF0
:100190009E2BDACFAF92BF92CF92DF92EF92FF9277
:1001A0000F931F93CF93DF936C017B018B01040F9F
:1001B000151FEB015E01AE18BF08C017D10759F03B
:1001C0006991D601ED91FC910190F081E02DC6017D
:1001D0000995892B79F7C501DF91CF911F910F9177
:1001E000FF90EF90DF90CF90BF90AF900895FC010B
:1001F000538D448D252F30E0842F90E0821B930B8C
:10020000541710F0CF96089501970895FC01918D31
:10021000828D981761F0A28DAE0FBF2FB11D5D9634
:100220008C91928D9F5F9F73928F90E008958FEFD6
:100230009FEF0895FC01918D828D981731F0828D8A
:10024000E80FF11D858D90E008958FEF9FEF0895E1
:10025000FC01918D228D892F90E0805C9F4F821B45
:1002600091098F739927089588E793E00E942801E8
:1002700021E0892B09F420E0822F089580E090E0AE
:10028000892B29F00E94340181110C9400000895FB
:10029000FC01A48DA80FB92FB11DA35ABF4F2C91FB
:1002A000848D90E001968F739927848FA689B789F2
:1002B0002C93A089B1898C91837080648C93938DE9
:1002C000848D981306C00288F389E02D80818F7D8C
:1002D00080830895EF92FF920F931F93CF93DF9344
:1002E000EC0181E0888F9B8D8C8D98131AC0E88972
:1002F000F989808185FF15C09FB7F894EE89FF8941
:100300006083E889F98980818370806480839FBFDE
:1003100081E090E0DF91CF911F910F91FF90EF90DE
:100320000895F62E0B8D10E00F5F1F4F0F731127EE
:10033000E02E8C8D8E110CC00FB607FCFACFE88929
:10034000F989808185FFF5CFCE010E944801F1CF68
:10035000EB8DEC0FFD2FF11DE35AFF4FF0829FB79D
:10036000F8940B8FEA89FB8980818062CFCF682F58
:1003700088E793E00C946A01CF93DF93EC01888DBA
:100380008823B9F0AA89BB89E889F9898C9185FD10
:1003900003C0808186FD0DC00FB607FCF7CF8C919E
:1003A00085FFF2CF808185FFEDCFCE010E9448010D
:1003B000E9CFDF91CF910895529A90E0282F30E055
:1003C00080FF0AC05A9A5B985B9A35952795822FD1
:1003D0009F5F6913F3CF08955A98F5CFCF93C82F35
:1003E00061E080E00E94DC0162E083E00E94DC01C9
:1003F00068E08C2F0E94DC0161E080E0CF910C94DA
:10040000DC01482F4150550B91E001C0990F4A95EE
:10041000EAF7529829B1247029B920E030E05B98BE
:100420005B9A422F50E055954795242F4A9B02C076
:10043000292F242B3F5F8313F2CF529A822F0895E6
:10044000CF9361E080E00E94DC0162E082E00E94E4
:10045000DC0188E00E940102C82F61E080E00E9478
:10046000DC018C2FCF9108950E94200281FDFCCFEA
:1004700008950E94200280FFFCCF0895CF9361E091
:1004800080E00E94DC0162E080E00E94DC0162E02A
:1004900080E00E94DC0181E00E9401028823D9F300
:1004A00088E00E940102C82F61E080E00E94DC0128
:1004B0008C2FCF910895CF93C82F61E080E00E94E8
:1004C000DC0162E081E00E94DC0162E080E00E94E9
:1004D000DC0168E08C2F0E94DC0181E00E940102B7
:1004E0008823D9F361E080E0CF910C94DC015B9824
:1004F00083EC90E0FC013197F1F75B9A0197F1F7FB
:1005000008951F920F920FB60F9211242F933F93CD
:100510004F935F936F937F938F939F93AF93BF930B
:10052000EF93FF9388E793E00E944801FF91EF91DA
:10053000BF91AF919F918F917F916F915F914F91FB
:100540003F912F910F900FBE0F901F9018951F9203
:100550000F920FB60F9211242F938F939F93EF93C7
:10056000FF93E0918803F09189038081E0918E03ED
:10057000F0918F0382FD1BC09081809191038F5F6A
:100580008F7320919203821741F0E0919103F0E084
:10059000E858FC4F958F80939103FF91EF919F91C5
:1005A0008F912F910F900FBE0F901F901895808103
:1005B000F4CF1F920F920FB60F9211242F933F93F7
:1005C0008F939F93AF93BF938091170190911801E0
:1005D000A0911901B0911A013091160123E0230F67
:1005E0002D3758F50196A11DB11D2093160180935A
:1005F000170190931801A0931901B0931A018091EB
:10060000120190911301A0911401B091150101966E
:10061000A11DB11D8093120190931301A0931401A9
:10062000B0931501BF91AF919F918F913F912F9101
:100630000F900FBE0F901F90189526E8230F02967B
:10064000A11DB11DD2CF789484B5826084BD84B5DC
:10065000816084BD85B5826085BD85B5816085BDBD
:1006600080916E00816080936E0010928100809175
:1006700081008260809381008091810081608093FD
:100680008100809180008160809380008091B10022
:1006900084608093B1008091B00081608093B0004D
:1006A00080917A00846080937A0080917A008260E1
:1006B00080937A0080917A00816080937A008091A3
:1006C0007A00806880937A001092C100E0918803DC
:1006D000F091890382E08083E0918403F0918503A7
:1006E0001082E0918603F091870381E0808310926D
:1006F0009003E0918C03F0918D0386E08083E0917C
:100700008A03F0918B03808180618083E0918A036A
:10071000F0918B03808188608083E0918A03F0915F
:100720008B03808180688083E0918A03F0918B0342
:1007300080818F7D8083529A539A5B9A80E00E94D9
:100740008200C0E0D0E088E793E00E942801892B76
:1007500079F088E793E00E94060190917703911168
:1007600010C091E090931C0180934B02909377030B
:10077000209749F30E943401882329F30E94000046
:10078000E2CF913029F580931B01E0911C019E0F6F
:1007900090931C01F0E0E55BFD4F8083811114C054
:1007A00083E080937703E0914B02E83008F7F0E0B4
:1007B000E452FC4F0C946405FD0302041A04220465
:1007C0008D04AF041E05290582E080937703D0CF06
:1007D000923081F4E0911C0191E09E0F90931C01F6
:1007E000F0E0E55BFD4F808380911B018150809399
:1007F0001B01D4CF9330B9F2BBCF80E890E00E94C8
:10080000B701B6CF0E94770282E00E94EE0182E03B
:100810000E945B0284E00E945B0281E00E945B0216
:1008200081E890E00E94B70181E00E94820010926E
:1008300077039ECF0E94770282E890E00E94B70182
:1008400080E0F3CFC0904F0290915002409151024E
:100850008C2D890FB0904D022B2D30E0A2E5B2E037
:100860000DE111E0F801BF016D517140621773078E
:1008700018F45D915193F7CFEDE1F1E0BF016D51B7
:1008800071406217730718F45191850FF7CF3093B9
:100890004A0220934902481719F083E490E0AFCF51
:1008A000D12CF12CE12CFE2CED2CDC2CCC24C90E0F
:1008B000D11CE11CF11C84EB0E94EE0187E00E9438
:1008C0005B020E9434020E9439020E943E028D2D7A
:1008D0000E945B020E9434028C2D0E945B020E94E7
:1008E00034028B2D0E945B020E9434020E94390266
:1008F0000E943E02F12CBF1449F0F80181918F0152
:100900000E945B020E943402F394F5CF0E943902E8
:1009100083E890E00E94B7018ACF84EB0E94EE0149
:1009200083E00E945B020E9434020E9439020E940E
:100930003E028EED0E945B020E9434028DEA0E940C
:100940005B020E94340285EA0E945B020E9434022C
:100950000E9439020E943E0284E890E0DBCF85E8E5
:1009600090E00E94B701C0904E02D12CF12CE12CF6
:100970007601DD24CC2480914F0290E0B0E0A0E02D
:10098000BA2FA92F982F88278C0D9D1DAE1DBF1D36
:10099000209150026C017D01C20ED11CE11CF11CA2
:1009A00010914D0284EB0E94EE0186E00E945B02F2
:1009B0000E9434020E9439020E943E028D2D0E9444
:1009C0005B020E9434028C2D0E945B020E94340262
:1009D000812F0E945B020E9434020E9439020E9411
:1009E0003E023DE1E32E31E0F32E00E0101749F026
:1009F0000E9439020E943E02F70181937F010F5F3E
:100A0000F5CF10924A0210924902E12EF12C00918A
:100A1000490210914A020E151F0508F008CFF8018F
:100A2000E35EFE4F608188E793E00E946A010F5FFA
:100A30001F4F10934A0200934902E9CF80914E0262
:100A40000E94EE0180914F020E945B0286E890E0D6
:100A500061CF80914E020E94EE010E943E02682FFB
:100A600088E793E00E946A0187E890E053CFE8E7C7
:100A7000F3E01382128288EE93E0A0E0B0E084837A
:100A80009583A683B78384E091E09183808385EC8E
:100A900090E09587848784EC90E09787868780EC48
:100AA00090E0918B808B81EC90E0938B828B82EC39
:100AB00090E0958B848B86EC90E0978B868B118EE3
:100AC000128E138E148E0895EE0FFF1F0590F49171
:080AD000E02D0994F894FFCF1A
:100AD800000000006A01CA00F700BC0128010601F5
:020AE8001A01F1
:00000001FF
