:020000040000FA
:1000000002002E12010AC280D2AFE4FFFED2960F88
:10001000BF00010EBE27F6BF10F3C29680FE759793
:10002000DE7597AD220208000000220200BD12001A
:100030002A787FE4F6D8FD75810902007802000372
:10004000E493A3F8E493A34003F68001F208DFF4FD
:100050008029E493A3F85407240CC8C333C4540F75
:100060004420C8834004F456800146F6DFE4800B48
:100070000102040810204080900025E47E01936076
:10008000BCA3FF543F30E509541FFEE493A3600175
:100090000ECF54C025E060A840B8E493A3FAE493DF
:1000A000A3F8E493A3C8C582C8CAC583CAF0A3C88D
:1000B000C582C8CAC583CADFE9DEE780BEC0E0C02A
:1000C000D0C2CFE508700EE509146007047006D2AF
:1000D000908002C290D3E5099401E5086480948081
:1000E000500A0509E509700A0508800675080075BB
:1000F0000900D0D0D0E032E5C8540453C8FB75CB1A
:100100009C75CA4F43C80442C82212001E12011C2B
:1001100012012312012A1200F702012E75A40175A3
:10012000D4012275A57075D5702275E3402275A89B
:0201300020228B
:00000001FF
