:020000040000FA
:1000000002002EE5C8540453C8FB75CB9C75CA4F3B
:1000100043C80442C82212010012010712010E1245
:09002000011A12000302011E2264
:10002B000200BD120028787FE4F6D8FD7581090225
:10003B0000780200F7E493A3F8E493A34003F6805F
:10004B0001F208DFF48029E493A3F85407240CC8C9
:10005B00C333C4540F4420C8834004F45680014674
:10006B00F6DFE4800B01020408102040809001159C
:10007B00E47E019360BCA3FF543F30E509541FFE9F
:10008B00E493A360010ECF54C025E060A840B8E410
:10009B0093A3FAE493A3F8E493A3C8C582C8CAC593
:1000AB0083CAF0A3C8C582C8CAC583CADFE9DEE725
:1000BB0080BEC0E0C0D0C2CFE508700EE509146069
:1000CB0007047006D2908002C290D3E5099401E533
:1000DB000864809480500A0509E509700A050880B8
:1000EB0006750800750900D0D0D0E032120016C298
:1000FB0080D2AF80FE7597DE7597AD2275A4017522
:10010B00D4012275A57075D5702202080000007508
:07011B00E3402275A8202239
:00000001FF
